{
  "address": "0x63FD92Cd46826F05f2A2acA7Dc04EFAbc5d0F930",
  "abi": [
    {
      "inputs": [],
      "name": "ZamaProtocolUnsupported",
      "type": "error"
    },
    {
      "anonymous": false,
      "inputs": [
        {
          "indexed": true,
          "internalType": "address",
          "name": "user",
          "type": "address"
        },
        {
          "indexed": true,
          "internalType": "uint256",
          "name": "habitId",
          "type": "uint256"
        },
        {
          "indexed": true,
          "internalType": "uint256",
          "name": "achievementId",
          "type": "uint256"
        }
      ],
      "name": "AchievementUnlocked",
      "type": "event"
    },
    {
      "anonymous": false,
      "inputs": [
        {
          "indexed": true,
          "internalType": "address",
          "name": "user",
          "type": "address"
        },
        {
          "indexed": true,
          "internalType": "uint256",
          "name": "habitId",
          "type": "uint256"
        },
        {
          "indexed": true,
          "internalType": "uint256",
          "name": "badgeId",
          "type": "uint256"
        }
      ],
      "name": "CustomBadgeCreated",
      "type": "event"
    },
    {
      "anonymous": false,
      "inputs": [
        {
          "indexed": true,
          "internalType": "address",
          "name": "user",
          "type": "address"
        },
        {
          "indexed": true,
          "internalType": "uint256",
          "name": "habitId",
          "type": "uint256"
        },
        {
          "indexed": true,
          "internalType": "uint256",
          "name": "badgeId",
          "type": "uint256"
        }
      ],
      "name": "CustomBadgeMinted",
      "type": "event"
    },
    {
      "anonymous": false,
      "inputs": [
        {
          "indexed": true,
          "internalType": "address",
          "name": "user",
          "type": "address"
        },
        {
          "indexed": true,
          "internalType": "uint256",
          "name": "habitId",
          "type": "uint256"
        },
        {
          "indexed": true,
          "internalType": "uint256",
          "name": "badgeId",
          "type": "uint256"
        }
      ],
      "name": "CustomBadgeUnlocked",
      "type": "event"
    },
    {
      "anonymous": false,
      "inputs": [
        {
          "indexed": true,
          "internalType": "address",
          "name": "user",
          "type": "address"
        },
        {
          "indexed": true,
          "internalType": "uint256",
          "name": "habitId",
          "type": "uint256"
        },
        {
          "indexed": true,
          "internalType": "uint8",
          "name": "achievementId",
          "type": "uint8"
        }
      ],
      "name": "FixedAchievementMinted",
      "type": "event"
    },
    {
      "anonymous": false,
      "inputs": [
        {
          "indexed": true,
          "internalType": "address",
          "name": "user",
          "type": "address"
        },
        {
          "indexed": true,
          "internalType": "uint256",
          "name": "habitId",
          "type": "uint256"
        },
        {
          "indexed": true,
          "internalType": "uint8",
          "name": "achievementId",
          "type": "uint8"
        }
      ],
      "name": "FixedAchievementUnlocked",
      "type": "event"
    },
    {
      "anonymous": false,
      "inputs": [
        {
          "indexed": true,
          "internalType": "address",
          "name": "user",
          "type": "address"
        },
        {
          "indexed": true,
          "internalType": "uint256",
          "name": "habitId",
          "type": "uint256"
        }
      ],
      "name": "HabitArchived",
      "type": "event"
    },
    {
      "anonymous": false,
      "inputs": [
        {
          "indexed": true,
          "internalType": "address",
          "name": "user",
          "type": "address"
        },
        {
          "indexed": true,
          "internalType": "uint256",
          "name": "habitId",
          "type": "uint256"
        },
        {
          "indexed": false,
          "internalType": "string",
          "name": "name",
          "type": "string"
        },
        {
          "indexed": false,
          "internalType": "string",
          "name": "category",
          "type": "string"
        }
      ],
      "name": "HabitCreated",
      "type": "event"
    },
    {
      "anonymous": false,
      "inputs": [
        {
          "indexed": true,
          "internalType": "address",
          "name": "user",
          "type": "address"
        },
        {
          "indexed": true,
          "internalType": "uint256",
          "name": "habitId",
          "type": "uint256"
        }
      ],
      "name": "HabitDeleted",
      "type": "event"
    },
    {
      "anonymous": false,
      "inputs": [
        {
          "indexed": true,
          "internalType": "address",
          "name": "user",
          "type": "address"
        },
        {
          "indexed": true,
          "internalType": "uint256",
          "name": "habitId",
          "type": "uint256"
        },
        {
          "indexed": false,
          "internalType": "uint256",
          "name": "timestamp",
          "type": "uint256"
        }
      ],
      "name": "ProgressSubmitted",
      "type": "event"
    },
    {
      "inputs": [
        {
          "internalType": "address",
          "name": "",
          "type": "address"
        },
        {
          "internalType": "uint256",
          "name": "",
          "type": "uint256"
        }
      ],
      "name": "achievementCount",
      "outputs": [
        {
          "internalType": "uint256",
          "name": "",
          "type": "uint256"
        }
      ],
      "stateMutability": "view",
      "type": "function"
    },
    {
      "inputs": [
        {
          "internalType": "address",
          "name": "",
          "type": "address"
        },
        {
          "internalType": "uint256",
          "name": "",
          "type": "uint256"
        },
        {
          "internalType": "uint256",
          "name": "",
          "type": "uint256"
        }
      ],
      "name": "achievements",
      "outputs": [
        {
          "internalType": "uint256",
          "name": "id",
          "type": "uint256"
        },
        {
          "internalType": "string",
          "name": "name",
          "type": "string"
        },
        {
          "internalType": "string",
          "name": "description",
          "type": "string"
        },
        {
          "internalType": "euint32",
          "name": "threshold",
          "type": "bytes32"
        },
        {
          "internalType": "bool",
          "name": "isUnlocked",
          "type": "bool"
        },
        {
          "internalType": "uint256",
          "name": "unlockedAt",
          "type": "uint256"
        }
      ],
      "stateMutability": "view",
      "type": "function"
    },
    {
      "inputs": [
        {
          "internalType": "uint256",
          "name": "habitId",
          "type": "uint256"
        }
      ],
      "name": "archiveHabit",
      "outputs": [],
      "stateMutability": "nonpayable",
      "type": "function"
    },
    {
      "inputs": [
        {
          "internalType": "uint256",
          "name": "habitId",
          "type": "uint256"
        }
      ],
      "name": "authorizeAllDailyRecords",
      "outputs": [],
      "stateMutability": "nonpayable",
      "type": "function"
    },
    {
      "inputs": [
        {
          "internalType": "uint256",
          "name": "habitId",
          "type": "uint256"
        },
        {
          "internalType": "uint256",
          "name": "fromIndex",
          "type": "uint256"
        },
        {
          "internalType": "uint256",
          "name": "toIndex",
          "type": "uint256"
        }
      ],
      "name": "authorizeDailyRecords",
      "outputs": [],
      "stateMutability": "nonpayable",
      "type": "function"
    },
    {
      "inputs": [
        {
          "internalType": "uint256",
          "name": "habitId",
          "type": "uint256"
        },
        {
          "internalType": "uint256",
          "name": "achievementId",
          "type": "uint256"
        }
      ],
      "name": "checkAchievementEncrypted",
      "outputs": [
        {
          "internalType": "euint32",
          "name": "",
          "type": "bytes32"
        }
      ],
      "stateMutability": "nonpayable",
      "type": "function"
    },
    {
      "inputs": [
        {
          "internalType": "uint256",
          "name": "habitId",
          "type": "uint256"
        },
        {
          "internalType": "uint8",
          "name": "achievementId",
          "type": "uint8"
        }
      ],
      "name": "checkFixedAchievementEncrypted",
      "outputs": [
        {
          "internalType": "euint32",
          "name": "",
          "type": "bytes32"
        }
      ],
      "stateMutability": "nonpayable",
      "type": "function"
    },
    {
      "inputs": [],
      "name": "confidentialProtocolId",
      "outputs": [
        {
          "internalType": "uint256",
          "name": "",
          "type": "uint256"
        }
      ],
      "stateMutability": "view",
      "type": "function"
    },
    {
      "inputs": [
        {
          "internalType": "uint256",
          "name": "habitId",
          "type": "uint256"
        },
        {
          "internalType": "string",
          "name": "name",
          "type": "string"
        },
        {
          "internalType": "string",
          "name": "description",
          "type": "string"
        },
        {
          "internalType": "externalEuint32",
          "name": "thresholdEuint32",
          "type": "bytes32"
        },
        {
          "internalType": "bytes",
          "name": "thresholdProof",
          "type": "bytes"
        }
      ],
      "name": "createAchievement",
      "outputs": [],
      "stateMutability": "nonpayable",
      "type": "function"
    },
    {
      "inputs": [
        {
          "internalType": "uint256",
          "name": "habitId",
          "type": "uint256"
        },
        {
          "internalType": "string",
          "name": "name",
          "type": "string"
        },
        {
          "internalType": "string",
          "name": "description",
          "type": "string"
        },
        {
          "internalType": "uint8",
          "name": "metric",
          "type": "uint8"
        },
        {
          "internalType": "uint8",
          "name": "operatorCode",
          "type": "uint8"
        },
        {
          "internalType": "uint32",
          "name": "threshold",
          "type": "uint32"
        }
      ],
      "name": "createCustomBadge",
      "outputs": [],
      "stateMutability": "nonpayable",
      "type": "function"
    },
    {
      "inputs": [
        {
          "internalType": "string",
          "name": "name",
          "type": "string"
        },
        {
          "internalType": "string",
          "name": "category",
          "type": "string"
        }
      ],
      "name": "createHabit",
      "outputs": [],
      "stateMutability": "nonpayable",
      "type": "function"
    },
    {
      "inputs": [
        {
          "internalType": "address",
          "name": "",
          "type": "address"
        },
        {
          "internalType": "uint256",
          "name": "",
          "type": "uint256"
        }
      ],
      "name": "customBadgeCount",
      "outputs": [
        {
          "internalType": "uint256",
          "name": "",
          "type": "uint256"
        }
      ],
      "stateMutability": "view",
      "type": "function"
    },
    {
      "inputs": [
        {
          "internalType": "address",
          "name": "",
          "type": "address"
        },
        {
          "internalType": "uint256",
          "name": "",
          "type": "uint256"
        },
        {
          "internalType": "uint256",
          "name": "",
          "type": "uint256"
        }
      ],
      "name": "customBadges",
      "outputs": [
        {
          "internalType": "uint256",
          "name": "id",
          "type": "uint256"
        },
        {
          "internalType": "string",
          "name": "name",
          "type": "string"
        },
        {
          "internalType": "string",
          "name": "description",
          "type": "string"
        },
        {
          "internalType": "uint8",
          "name": "metric",
          "type": "uint8"
        },
        {
          "internalType": "uint8",
          "name": "operatorCode",
          "type": "uint8"
        },
        {
          "internalType": "uint32",
          "name": "threshold",
          "type": "uint32"
        },
        {
          "internalType": "bool",
          "name": "isUnlocked",
          "type": "bool"
        },
        {
          "internalType": "uint256",
          "name": "unlockedAt",
          "type": "uint256"
        },
        {
          "internalType": "bool",
          "name": "isMinted",
          "type": "bool"
        }
      ],
      "stateMutability": "view",
      "type": "function"
    },
    {
      "inputs": [
        {
          "internalType": "address",
          "name": "",
          "type": "address"
        },
        {
          "internalType": "uint256",
          "name": "",
          "type": "uint256"
        },
        {
          "internalType": "uint256",
          "name": "",
          "type": "uint256"
        }
      ],
      "name": "dailyRecords",
      "outputs": [
        {
          "internalType": "uint256",
          "name": "timestamp",
          "type": "uint256"
        },
        {
          "internalType": "euint32",
          "name": "progress",
          "type": "bytes32"
        }
      ],
      "stateMutability": "view",
      "type": "function"
    },
    {
      "inputs": [
        {
          "internalType": "uint256",
          "name": "habitId",
          "type": "uint256"
        }
      ],
      "name": "deleteHabit",
      "outputs": [],
      "stateMutability": "nonpayable",
      "type": "function"
    },
    {
      "inputs": [
        {
          "internalType": "address",
          "name": "",
          "type": "address"
        },
        {
          "internalType": "uint256",
          "name": "",
          "type": "uint256"
        },
        {
          "internalType": "uint8",
          "name": "",
          "type": "uint8"
        }
      ],
      "name": "fixedAchievementMinted",
      "outputs": [
        {
          "internalType": "bool",
          "name": "",
          "type": "bool"
        }
      ],
      "stateMutability": "view",
      "type": "function"
    },
    {
      "inputs": [
        {
          "internalType": "address",
          "name": "",
          "type": "address"
        },
        {
          "internalType": "uint256",
          "name": "",
          "type": "uint256"
        },
        {
          "internalType": "uint8",
          "name": "",
          "type": "uint8"
        }
      ],
      "name": "fixedAchievementUnlocked",
      "outputs": [
        {
          "internalType": "bool",
          "name": "",
          "type": "bool"
        }
      ],
      "stateMutability": "view",
      "type": "function"
    },
    {
      "inputs": [
        {
          "internalType": "address",
          "name": "",
          "type": "address"
        },
        {
          "internalType": "uint256",
          "name": "",
          "type": "uint256"
        },
        {
          "internalType": "uint8",
          "name": "",
          "type": "uint8"
        }
      ],
      "name": "fixedAchievementUnlockedAt",
      "outputs": [
        {
          "internalType": "uint256",
          "name": "",
          "type": "uint256"
        }
      ],
      "stateMutability": "view",
      "type": "function"
    },
    {
      "inputs": [
        {
          "internalType": "uint256",
          "name": "habitId",
          "type": "uint256"
        },
        {
          "internalType": "uint256",
          "name": "index",
          "type": "uint256"
        }
      ],
      "name": "getAchievement",
      "outputs": [
        {
          "internalType": "uint256",
          "name": "id",
          "type": "uint256"
        },
        {
          "internalType": "string",
          "name": "name",
          "type": "string"
        },
        {
          "internalType": "string",
          "name": "description",
          "type": "string"
        },
        {
          "internalType": "euint32",
          "name": "threshold",
          "type": "bytes32"
        },
        {
          "internalType": "bool",
          "name": "isUnlocked",
          "type": "bool"
        },
        {
          "internalType": "uint256",
          "name": "unlockedAt",
          "type": "uint256"
        }
      ],
      "stateMutability": "view",
      "type": "function"
    },
    {
      "inputs": [
        {
          "internalType": "uint256",
          "name": "habitId",
          "type": "uint256"
        }
      ],
      "name": "getAchievementCount",
      "outputs": [
        {
          "internalType": "uint256",
          "name": "",
          "type": "uint256"
        }
      ],
      "stateMutability": "view",
      "type": "function"
    },
    {
      "inputs": [
        {
          "internalType": "uint256",
          "name": "habitId",
          "type": "uint256"
        },
        {
          "internalType": "uint256",
          "name": "badgeId",
          "type": "uint256"
        }
      ],
      "name": "getCustomBadge",
      "outputs": [
        {
          "internalType": "uint256",
          "name": "id",
          "type": "uint256"
        },
        {
          "internalType": "string",
          "name": "name",
          "type": "string"
        },
        {
          "internalType": "string",
          "name": "description",
          "type": "string"
        },
        {
          "internalType": "uint8",
          "name": "metric",
          "type": "uint8"
        },
        {
          "internalType": "uint8",
          "name": "operatorCode",
          "type": "uint8"
        },
        {
          "internalType": "uint32",
          "name": "threshold",
          "type": "uint32"
        },
        {
          "internalType": "bool",
          "name": "isUnlocked",
          "type": "bool"
        },
        {
          "internalType": "uint256",
          "name": "unlockedAt",
          "type": "uint256"
        },
        {
          "internalType": "bool",
          "name": "isMinted",
          "type": "bool"
        }
      ],
      "stateMutability": "view",
      "type": "function"
    },
    {
      "inputs": [
        {
          "internalType": "uint256",
          "name": "habitId",
          "type": "uint256"
        }
      ],
      "name": "getCustomBadgeCount",
      "outputs": [
        {
          "internalType": "uint256",
          "name": "",
          "type": "uint256"
        }
      ],
      "stateMutability": "view",
      "type": "function"
    },
    {
      "inputs": [
        {
          "internalType": "uint256",
          "name": "habitId",
          "type": "uint256"
        },
        {
          "internalType": "uint256",
          "name": "recordIndex",
          "type": "uint256"
        }
      ],
      "name": "getDailyRecord",
      "outputs": [
        {
          "internalType": "uint256",
          "name": "timestamp",
          "type": "uint256"
        },
        {
          "internalType": "euint32",
          "name": "progress",
          "type": "bytes32"
        }
      ],
      "stateMutability": "view",
      "type": "function"
    },
    {
      "inputs": [],
      "name": "getFixedAchievementCount",
      "outputs": [
        {
          "internalType": "uint8",
          "name": "",
          "type": "uint8"
        }
      ],
      "stateMutability": "pure",
      "type": "function"
    },
    {
      "inputs": [
        {
          "internalType": "uint8",
          "name": "achievementId",
          "type": "uint8"
        }
      ],
      "name": "getFixedAchievementMeta",
      "outputs": [
        {
          "internalType": "string",
          "name": "name",
          "type": "string"
        },
        {
          "internalType": "string",
          "name": "description",
          "type": "string"
        },
        {
          "internalType": "uint8",
          "name": "metric",
          "type": "uint8"
        },
        {
          "internalType": "uint32",
          "name": "threshold",
          "type": "uint32"
        }
      ],
      "stateMutability": "pure",
      "type": "function"
    },
    {
      "inputs": [
        {
          "internalType": "uint256",
          "name": "habitId",
          "type": "uint256"
        },
        {
          "internalType": "uint8",
          "name": "achievementId",
          "type": "uint8"
        }
      ],
      "name": "getFixedAchievementStatus",
      "outputs": [
        {
          "internalType": "bool",
          "name": "isUnlocked",
          "type": "bool"
        },
        {
          "internalType": "uint256",
          "name": "unlockedAt",
          "type": "uint256"
        },
        {
          "internalType": "bool",
          "name": "isMinted",
          "type": "bool"
        }
      ],
      "stateMutability": "view",
      "type": "function"
    },
    {
      "inputs": [
        {
          "internalType": "uint256",
          "name": "habitId",
          "type": "uint256"
        }
      ],
      "name": "getHabit",
      "outputs": [
        {
          "internalType": "uint256",
          "name": "id",
          "type": "uint256"
        },
        {
          "internalType": "string",
          "name": "name",
          "type": "string"
        },
        {
          "internalType": "string",
          "name": "category",
          "type": "string"
        },
        {
          "internalType": "bool",
          "name": "isActive",
          "type": "bool"
        },
        {
          "internalType": "bool",
          "name": "isArchived",
          "type": "bool"
        },
        {
          "internalType": "uint256",
          "name": "createdAt",
          "type": "uint256"
        }
      ],
      "stateMutability": "view",
      "type": "function"
    },
    {
      "inputs": [
        {
          "internalType": "uint256",
          "name": "habitId",
          "type": "uint256"
        }
      ],
      "name": "getHabitGrowth",
      "outputs": [
        {
          "internalType": "euint32",
          "name": "",
          "type": "bytes32"
        }
      ],
      "stateMutability": "view",
      "type": "function"
    },
    {
      "inputs": [
        {
          "internalType": "uint256",
          "name": "habitId",
          "type": "uint256"
        }
      ],
      "name": "getRecordCount",
      "outputs": [
        {
          "internalType": "uint256",
          "name": "",
          "type": "uint256"
        }
      ],
      "stateMutability": "view",
      "type": "function"
    },
    {
      "inputs": [
        {
          "internalType": "uint256",
          "name": "habitId",
          "type": "uint256"
        }
      ],
      "name": "getStreakDays",
      "outputs": [
        {
          "internalType": "euint32",
          "name": "",
          "type": "bytes32"
        }
      ],
      "stateMutability": "view",
      "type": "function"
    },
    {
      "inputs": [
        {
          "internalType": "uint256",
          "name": "habitId",
          "type": "uint256"
        }
      ],
      "name": "getTotalProgress",
      "outputs": [
        {
          "internalType": "euint32",
          "name": "",
          "type": "bytes32"
        }
      ],
      "stateMutability": "view",
      "type": "function"
    },
    {
      "inputs": [
        {
          "internalType": "address",
          "name": "",
          "type": "address"
        }
      ],
      "name": "habitCount",
      "outputs": [
        {
          "internalType": "uint256",
          "name": "",
          "type": "uint256"
        }
      ],
      "stateMutability": "view",
      "type": "function"
    },
    {
      "inputs": [
        {
          "internalType": "address",
          "name": "",
          "type": "address"
        },
        {
          "internalType": "uint256",
          "name": "",
          "type": "uint256"
        }
      ],
      "name": "habitGrowth",
      "outputs": [
        {
          "internalType": "euint32",
          "name": "",
          "type": "bytes32"
        }
      ],
      "stateMutability": "view",
      "type": "function"
    },
    {
      "inputs": [
        {
          "internalType": "address",
          "name": "",
          "type": "address"
        },
        {
          "internalType": "uint256",
          "name": "",
          "type": "uint256"
        }
      ],
      "name": "habits",
      "outputs": [
        {
          "internalType": "uint256",
          "name": "id",
          "type": "uint256"
        },
        {
          "internalType": "string",
          "name": "name",
          "type": "string"
        },
        {
          "internalType": "string",
          "name": "category",
          "type": "string"
        },
        {
          "internalType": "bool",
          "name": "isActive",
          "type": "bool"
        },
        {
          "internalType": "bool",
          "name": "isArchived",
          "type": "bool"
        },
        {
          "internalType": "uint256",
          "name": "createdAt",
          "type": "uint256"
        }
      ],
      "stateMutability": "view",
      "type": "function"
    },
    {
      "inputs": [
        {
          "internalType": "uint256",
          "name": "habitId",
          "type": "uint256"
        },
        {
          "internalType": "uint256",
          "name": "badgeId",
          "type": "uint256"
        }
      ],
      "name": "mintCustomBadge",
      "outputs": [],
      "stateMutability": "nonpayable",
      "type": "function"
    },
    {
      "inputs": [
        {
          "internalType": "uint256",
          "name": "habitId",
          "type": "uint256"
        },
        {
          "internalType": "uint8",
          "name": "achievementId",
          "type": "uint8"
        }
      ],
      "name": "mintFixedAchievementBadge",
      "outputs": [],
      "stateMutability": "nonpayable",
      "type": "function"
    },
    {
      "inputs": [
        {
          "internalType": "address",
          "name": "",
          "type": "address"
        },
        {
          "internalType": "uint256",
          "name": "",
          "type": "uint256"
        }
      ],
      "name": "recordCount",
      "outputs": [
        {
          "internalType": "uint256",
          "name": "",
          "type": "uint256"
        }
      ],
      "stateMutability": "view",
      "type": "function"
    },
    {
      "inputs": [
        {
          "internalType": "address",
          "name": "",
          "type": "address"
        },
        {
          "internalType": "uint256",
          "name": "",
          "type": "uint256"
        }
      ],
      "name": "streakDays",
      "outputs": [
        {
          "internalType": "euint32",
          "name": "",
          "type": "bytes32"
        }
      ],
      "stateMutability": "view",
      "type": "function"
    },
    {
      "inputs": [
        {
          "internalType": "uint256",
          "name": "habitId",
          "type": "uint256"
        },
        {
          "internalType": "externalEuint32",
          "name": "inputEuint32",
          "type": "bytes32"
        },
        {
          "internalType": "bytes",
          "name": "inputProof",
          "type": "bytes"
        }
      ],
      "name": "submitProgress",
      "outputs": [],
      "stateMutability": "nonpayable",
      "type": "function"
    },
    {
      "inputs": [
        {
          "internalType": "address",
          "name": "",
          "type": "address"
        },
        {
          "internalType": "uint256",
          "name": "",
          "type": "uint256"
        }
      ],
      "name": "totalProgress",
      "outputs": [
        {
          "internalType": "euint32",
          "name": "",
          "type": "bytes32"
        }
      ],
      "stateMutability": "view",
      "type": "function"
    },
    {
      "inputs": [
        {
          "internalType": "uint256",
          "name": "habitId",
          "type": "uint256"
        },
        {
          "internalType": "uint256",
          "name": "achievementId",
          "type": "uint256"
        }
      ],
      "name": "unlockAchievement",
      "outputs": [],
      "stateMutability": "nonpayable",
      "type": "function"
    },
    {
      "inputs": [
        {
          "internalType": "uint256",
          "name": "habitId",
          "type": "uint256"
        },
        {
          "internalType": "uint256",
          "name": "badgeId",
          "type": "uint256"
        }
      ],
      "name": "unlockCustomBadge",
      "outputs": [],
      "stateMutability": "nonpayable",
      "type": "function"
    },
    {
      "inputs": [
        {
          "internalType": "uint256",
          "name": "habitId",
          "type": "uint256"
        },
        {
          "internalType": "uint8",
          "name": "achievementId",
          "type": "uint8"
        }
      ],
      "name": "unlockFixedAchievement",
      "outputs": [],
      "stateMutability": "nonpayable",
      "type": "function"
    }
  ],
  "transactionHash": "0xa9b36b489a384ebffb158ec6650820c5efd56ecf23ecb2d589b03bdc4db0e043",
  "args": [],
  "numDeployments": 2,
  "solcInputHash": "766914c9bf39fd88b5c3bec903635d81",
  "bytecode": "0x608060405234801561000f575f5ffd5b506100c461001b6100c9565b80517f9e7b61f58c47dc699ac88507c4f5bb9f121c03808c5676a8078fe583e464970080546001600160a01b03199081166001600160a01b039384161790915560208301517f9e7b61f58c47dc699ac88507c4f5bb9f121c03808c5676a8078fe583e46497018054831691841691909117905560408301517f9e7b61f58c47dc699ac88507c4f5bb9f121c03808c5676a8078fe583e46497028054909216921691909117905550565b610238565b604080516060810182525f808252602082018190529181019190915246600103610122575060408051606080820183525f8083526020808401829052928401819052835191820184528082529181018290529182015290565b4662aa36a7036101a1575060408051606080820183525f8083526020808401829052928401528251908101835273f0ffdc93b7e186bc2f8cb3daa75d86d1930a433d81527392c920834ec8941d2c77d188936e1f7a6f49c1279181019190915273be0e383937d564d7ff0bc3b46c51f0bf8d5c311a9181019190915290565b46617a690361021f575060408051606080820183525f8083526020808401829052928401528251908101835273f0ffdc93b7e186bc2f8cb3daa75d86d1930a433d81527392c920834ec8941d2c77d188936e1f7a6f49c1279181019190915273be0e383937d564d7ff0bc3b46c51f0bf8d5c311a9181019190915290565b6040516373cac13b60e01b815260040160405180910390fd5b613d5c806102455f395ff3fe608060405234801561000f575f5ffd5b50600436106102d7575f3560e01c80638b95e50211610187578063d7ae41cc116100dd578063ecbe433911610093578063f2a574411161006e578063f2a57441146107c1578063f49d5353146107eb578063f4e71e4614610883575f5ffd5b8063ecbe433914610771578063ee521a7e14610784578063f035847414610797575f5ffd5b8063dfc87321116100c3578063dfc8732114610725578063e39ecc4c14610734578063ecbc24c61461075e575f5ffd5b8063d7ae41cc146106e8578063dae52b0a14610712575f5ffd5b8063aac89aec1161013d578063c036851511610118578063c0368515146106af578063c1ef528d146106c2578063ce35ec14146106d5575f5ffd5b8063aac89aec1461065f578063ab262baf14610672578063bd25249e1461069c575f5ffd5b8063978877461161016d57806397887746146105d65780639fb0b58414610600578063a012e7dd1461064c575f5ffd5b80638b95e502146105995780638e277753146105ac575f5ffd5b80633bfbc0b81161023c57806360659c8c116101f257806384d18d80116101cd57806384d18d8014610534578063850f31141461055e5780638927b03014610591575f5ffd5b806360659c8c146104e4578063701bb150146104f75780637df27b9b14610521575f5ffd5b80634abaaf0f116102225780634abaaf0f14610494578063507abbad146104a75780635c3cbebe146104ba575f5ffd5b80633bfbc0b81461045057806343fe8a1e14610475575f5ffd5b8063140d79a6116102915780631ae22b01116102775780631ae22b01146103ca578063209de01f146103fa57806329725bb91461043d575f5ffd5b8063140d79a61461038f578063145ffe15146103a2575f5ffd5b80630d37d3b7116102c15780630d37d3b71461033d5780630d7dcc13146103675780631110468a1461037c575f5ffd5b806219835c146102db5780630579b60514610318575b5f5ffd5b6103056102e936600461343b565b335f908152600d60209081526040808320938352929052205490565b6040519081526020015b60405180910390f35b61032b610326366004613452565b6108a6565b60405161030f969594939291906134a0565b61030561034b36600461343b565b335f908152600660209081526040808320938352929052205490565b61037a6103753660046134e9565b610a7b565b005b61037a61038a366004613550565b610bc2565b61037a61039d36600461343b565b610f03565b6103b56103b0366004613452565b610fef565b60405161030f9998979695949392919061359f565b6103056103d8366004613634565b600a60209081525f938452604080852082529284528284209052825290205481565b61042d610408366004613634565b600960209081525f938452604080852082529284528284209052825290205460ff1681565b604051901515815260200161030f565b6103b561044b366004613671565b611245565b61046361045e36600461343b565b6113be565b60405161030f969594939291906136a1565b6103056104833660046136ea565b60016020525f908152604090205481565b6103056104a2366004613452565b611574565b61037a6104b53660046137c1565b611847565b6103056104c8366004613868565b600660209081525f928352604080842090915290825290205481565b6103056104f2366004613890565b611a09565b610305610505366004613868565b600260209081525f928352604080842090915290825290205481565b61037a61052f366004613890565b611bf5565b610305610542366004613868565b600d60209081525f928352604080842090915290825290205481565b61042d61056c366004613634565b600b60209081525f938452604080852082529284528284209052825290205460ff1681565b610305611d60565b61037a6105a736600461343b565b611d6e565b6103056105ba36600461343b565b335f908152600860209081526040808320938352929052205490565b6103056105e4366004613868565b600860209081525f928352604080842090915290825290205481565b61063761060e366004613671565b600360209081525f93845260408085208252928452828420905282529020805460019091015482565b6040805192835260208301919091520161030f565b61037a61065a3660046138cf565b611e36565b61037a61066d366004613452565b61205b565b61030561068036600461343b565b335f908152600260209081526040808320938352929052205490565b61037a6106aa366004613452565b612162565b6106376106bd366004613452565b6122af565b6104636106d0366004613868565b6122f4565b61032b6106e3366004613671565b612443565b6103056106f636600461343b565b335f908152600760209081526040808320938352929052205490565b61037a61072036600461343b565b6125b2565b6040516005815260200161030f565b610305610742366004613868565b600760209081525f928352604080842090915290825290205481565b61037a61076c366004613452565b6126c1565b61037a61077f366004613974565b61286d565b61037a610792366004613890565b612a10565b6103056107a5366004613868565b600460209081525f928352604080842090915290825290205481565b6103056107cf36600461343b565b335f908152600460209081526040808320938352929052205490565b6108646107f9366004613890565b335f818152600960209081526040808320868452825280832060ff95861680855290835281842054858552600a84528285208886528452828520828652845282852054958552600b845282852097855296835281842090845290915290205492821693909290911690565b604080519315158452602084019290925215159082015260600161030f565b6108966108913660046139d9565b612b47565b60405161030f94939291906139f4565b335f9081526005602090815260408083208584529091528120805460609182918491829182918291899081106108de576108de613a39565b905f5260205f2090600602016040518060c00160405290815f820154815260200160018201805461090e90613a4d565b80601f016020809104026020016040519081016040528092919081815260200182805461093a90613a4d565b80156109855780601f1061095c57610100808354040283529160200191610985565b820191905f5260205f20905b81548152906001019060200180831161096857829003601f168201915b5050505050815260200160028201805461099e90613a4d565b80601f01602080910402602001604051908101604052809291908181526020018280546109ca90613a4d565b8015610a155780601f106109ec57610100808354040283529160200191610a15565b820191905f5260205f20905b8154815290600101906020018083116109f857829003601f168201915b50505091835250506003820154602080830191909152600483015460ff1615156040808401919091526005909301546060928301528351908401519284015191840151608085015160a090950151919e939d50919b509099509197509095509350505050565b335f9081526020818152604080832086845290915290206003015460ff1680610ac35750335f90815260208181526040808320868452909152902060030154610100900460ff165b610b065760405162461bcd60e51b815260206004820152600f60248201526e1218589a5d081b9bdd08199bdd5b99608a1b60448201526064015b60405180910390fd5b335f908152600460209081526040808320868452909152902054811115610b6f5760405162461bcd60e51b815260206004820152600d60248201527f4f7574206f6620626f756e6473000000000000000000000000000000000000006044820152606401610afd565b815b81811015610bbc57335f9081526003602090815260408083208784528252808320848452909152902060010154610ba781612dfd565b50610bb28133612e0c565b5050600101610b71565b50505050565b335f9081526020818152604080832087845290915290206003015460ff16610c2c5760405162461bcd60e51b815260206004820152601d60248201527f4861626974206e6f7420666f756e64206f72206e6f74206163746976650000006044820152606401610afd565b5f610c6c8484848080601f0160208091040260200160405190810160405280939291908181526020018383808284375f92019190915250612e1e92505050565b335f908152600260209081526040808320898452909152902054909150610c939082612e32565b335f8181526002602090815260408083208a8452825280832094909455918152600782528281208882529091522054610ccc9082612e32565b335f8181526007602090815260408083208a845282528083209490945582825260048152838220898352808252848320805486518088018852428152808501898152968652600385528786208d87528552878620828752855296852096518755945160019096019590955589835290528254919290610d4a83613a99565b9190505550610d5882612dfd565b50610d638233612e0c565b505f610d6f6001612e60565b90505f610d7b5f612e60565b90505f610d888583612e72565b335f9081526008602090815260408083208d8452909152902054909150610dd4908290610db59086612e32565b335f9081526008602090815260408083208f8452909152902054612ea0565b335f8181526008602090815260408083208e8452825280832094909455918152600282528281208c82529091522054610e0c90612dfd565b50335f8181526002602090815260408083208d8452909152902054610e3091612e0c565b50335f9081526007602090815260408083208c8452909152902054610e5490612dfd565b50335f8181526007602090815260408083208d8452909152902054610e7891612e0c565b50335f9081526008602090815260408083208c8452909152902054610e9c90612dfd565b50335f8181526008602090815260408083208d8452909152902054610ec091612e0c565b50604051428152899033907f1726d7d935c1ff6ff48be35e9f3298e8672e3d47f1bda7b1d4d8a75873b60fe29060200160405180910390a3505050505050505050565b335f81815260046020908152604080832085845282528083205493835282825280832085845290915290206003015460ff1680610f5f5750335f90815260208181526040808320858452909152902060030154610100900460ff165b610f9d5760405162461bcd60e51b815260206004820152600f60248201526e1218589a5d081b9bdd08199bdd5b99608a1b6044820152606401610afd565b5f5b81811015610fea57335f9081526003602090815260408083208684528252808320848452909152902060010154610fd581612dfd565b50610fe08133612e0c565b5050600101610f9f565b505050565b335f908152600c6020908152604080832085845282528083208484528252808320815161012081019092528054825260018101805460609485948794859485948594859485948594919390928401919061104890613a4d565b80601f016020809104026020016040519081016040528092919081815260200182805461107490613a4d565b80156110bf5780601f10611096576101008083540402835291602001916110bf565b820191905f5260205f20905b8154815290600101906020018083116110a257829003601f168201915b505050505081526020016002820180546110d890613a4d565b80601f016020809104026020016040519081016040528092919081815260200182805461110490613a4d565b801561114f5780601f106111265761010080835404028352916020019161114f565b820191905f5260205f20905b81548152906001019060200180831161113257829003601f168201915b50505050508152602001600382015f9054906101000a900460ff1660ff1660ff1681526020016003820160019054906101000a900460ff1660ff1660ff1681526020016003820160029054906101000a900463ffffffff1663ffffffff1663ffffffff1681526020016003820160069054906101000a900460ff1615151515815260200160048201548152602001600582015f9054906101000a900460ff1615151515815250509050805f015181602001518260400151836060015184608001518560a001518660c001518760e00151886101000151995099509950995099509950995099509950509295985092959850929598565b600c60209081525f93845260408085208252928452828420905282529020805460018201805491929161127790613a4d565b80601f01602080910402602001604051908101604052809291908181526020018280546112a390613a4d565b80156112ee5780601f106112c5576101008083540402835291602001916112ee565b820191905f5260205f20905b8154815290600101906020018083116112d157829003601f168201915b50505050509080600201805461130390613a4d565b80601f016020809104026020016040519081016040528092919081815260200182805461132f90613a4d565b801561137a5780601f106113515761010080835404028352916020019161137a565b820191905f5260205f20905b81548152906001019060200180831161135d57829003601f168201915b50505060038401546004850154600590950154939460ff8083169561010084048216955063ffffffff62010000850416945066010000000000009093048116921689565b335f908152602081815260408083208484528252808320815160c0810190925280548252600181018054606094859487948594859485948401919061140290613a4d565b80601f016020809104026020016040519081016040528092919081815260200182805461142e90613a4d565b80156114795780601f1061145057610100808354040283529160200191611479565b820191905f5260205f20905b81548152906001019060200180831161145c57829003601f168201915b5050505050815260200160028201805461149290613a4d565b80601f01602080910402602001604051908101604052809291908181526020018280546114be90613a4d565b80156115095780601f106114e057610100808354040283529160200191611509565b820191905f5260205f20905b8154815290600101906020018083116114ec57829003601f168201915b5050509183525050600382015460ff80821615156020808501919091526101009092041615156040808401919091526004909301546060928301528351908401519284015191840151608085015160a090950151919d939c50919a5090985091965090945092505050565b335f9081526020818152604080832085845290915281206003015460ff166115de5760405162461bcd60e51b815260206004820152601d60248201527f4861626974206e6f7420666f756e64206f72206e6f74206163746976650000006044820152606401610afd565b335f90815260066020908152604080832086845290915290205482106116465760405162461bcd60e51b815260206004820152601560248201527f416368696576656d656e74206e6f7420666f756e6400000000000000000000006044820152606401610afd565b335f908152600560209081526040808320868452909152812080548490811061167157611671613a39565b905f5260205f2090600602016040518060c00160405290815f82015481526020016001820180546116a190613a4d565b80601f01602080910402602001604051908101604052809291908181526020018280546116cd90613a4d565b80156117185780601f106116ef57610100808354040283529160200191611718565b820191905f5260205f20905b8154815290600101906020018083116116fb57829003601f168201915b5050505050815260200160028201805461173190613a4d565b80601f016020809104026020016040519081016040528092919081815260200182805461175d90613a4d565b80156117a85780601f1061177f576101008083540402835291602001916117a8565b820191905f5260205f20905b81548152906001019060200180831161178b57829003601f168201915b50505091835250506003820154602080830191909152600483015460ff161515604080840191909152600590930154606092830152335f90815260028252838120898252909152918220549083015192935090916118069190612e72565b90505f6118136001612e60565b90505f61181f5f612e60565b90505f61182d848484612ea0565b90506118398133612e0c565b509450505050505b92915050565b335f9081526020818152604080832089845290915290206003015460ff166118b15760405162461bcd60e51b815260206004820152601d60248201527f4861626974206e6f7420666f756e64206f72206e6f74206163746976650000006044820152606401610afd565b5f6118f18484848080601f0160208091040260200160405190810160405280939291908181526020018383808284375f92019190915250612e1e92505050565b335f8181526006602081815260408084208d8552825280842054948452600582528084208d85528252808420815160c0810183528681528084018e81529281018d9052606081018890526080810186905260a08101869052815460018181018455928752939095208551939094029093019182555194955092939192919082019061197c9082613afc565b50604082015160028201906119919082613afc565b5060608201516003820155608082015160048201805460ff191691151591909117905560a090910151600590910155335f9081526006602090815260408083208b845290915281208054916119e583613a99565b91905055506119f382612dfd565b506119fe8233612e0c565b505050505050505050565b335f9081526020818152604080832085845290915281206003015460ff1680611a515750335f90815260208181526040808320868452909152902060030154610100900460ff165b611a8f5760405162461bcd60e51b815260206004820152600f60248201526e1218589a5d081b9bdd08199bdd5b99608a1b6044820152606401610afd565b604051637a738f2360e11b815260ff831660048201525f9081906060908190309063f4e71e46906024015f60405180830381865afa158015611ad3573d5f5f3e3d5ffd5b505050506040513d5f823e601f3d908101601f19168201604052611afa9190810190613c04565b90965094505f9350611b2a9250505063ffffffff8316611b1a575f612e60565b611b25600184613c8e565b612e60565b90505f60ff8416611b6057335f9081526007602090815260408083208a8452909152902054611b599083612e72565b9050611bb6565b5f1960ff851601611b8f57335f9081526008602090815260408083208a8452909152902054611b599083612e72565b335f9081526002602090815260408083208a8452909152902054611bb39083612e72565b90505b5f611bc16001612e60565b90505f611bcd5f612e60565b90505f611bdb848484612ea0565b9050611be78133612e0c565b509998505050505050505050565b335f9081526020818152604080832085845290915290206003015460ff1680611c3d5750335f90815260208181526040808320858452909152902060030154610100900460ff165b611c7b5760405162461bcd60e51b815260206004820152600f60248201526e1218589a5d081b9bdd08199bdd5b99608a1b6044820152606401610afd565b335f908152600960209081526040808320858452825280832060ff80861685529252909120541615611ce25760405162461bcd60e51b815260206004820152601060248201526f105b1c9958591e481d5b9b1bd8dad95960821b6044820152606401610afd565b335f818152600960209081526040808320868452825280832060ff8616808552908352818420805460ff19166001179055848452600a83528184208785528352818420818552909252808320429055519092859290917ff09762de231d59668a5b4af2e84240c34fb6ed0824563afa01c7e2814df050c79190a45050565b5f611d69612ee7565b905090565b335f9081526020818152604080832084845290915290206003015460ff16611de45760405162461bcd60e51b815260206004820152602360248201527f4861626974206e6f7420666f756e64206f7220616c72656164792061726368696044820152621d995960ea1b6064820152608401610afd565b335f81815260208181526040808320858452909152808220600301805461ffff1916610100179055518392917f0616735efae4d4e899c106ea6044ea68d62df9b2e6fb9d3f954763402be0367891a350565b335f9081526020818152604080832089845290915290206003015460ff1680611e7e5750335f90815260208181526040808320898452909152902060030154610100900460ff165b611ebc5760405162461bcd60e51b815260206004820152600f60248201526e1218589a5d081b9bdd08199bdd5b99608a1b6044820152606401610afd565b335f818152600d602090815260408083208a84528252808320548151610120810183528181528084018b81528184018b905260ff808b1660608401528916608083015263ffffffff881660a083015260c0820186905260e082018690526101008201869052958552600c84528285208c865284528285208286529093529220815181559251919290916001820190611f549082613afc565b5060408201516002820190611f699082613afc565b506060820151600382018054608085015160a086015160c087015160ff95861661ffff19909416939093176101009590921685029190911766ffffffffff000019166201000063ffffffff9092169190910266ff00000000000019161766010000000000009115159190910217905560e08301516004830155909101516005909101805460ff1916911515919091179055335f908152600d602090815260408083208a8452909152812080549161201f83613a99565b90915550506040518190889033907f35fd2351fb09d1483e7f8cec155af203f2fca791da07e091a617ac8d28218514905f90a450505050505050565b335f908152600c602090815260408083208584528252808320848452909152902060038101546601000000000000900460ff166120da5760405162461bcd60e51b815260206004820152601260248201527f4261646765206e6f7420756e6c6f636b656400000000000000000000000000006044820152606401610afd565b600581015460ff16156121205760405162461bcd60e51b815260206004820152600e60248201526d105b1c9958591e481b5a5b9d195960921b6044820152606401610afd565b60058101805460ff191660011790556040518290849033907f217fe9988aa0e1adec0d3d614b8d8592bc3c44c8efbcd38306b0d2d2c0c9b8e8905f90a4505050565b335f9081526020818152604080832085845290915290206003015460ff16806121aa5750335f90815260208181526040808320858452909152902060030154610100900460ff165b6121e85760405162461bcd60e51b815260206004820152600f60248201526e1218589a5d081b9bdd08199bdd5b99608a1b6044820152606401610afd565b335f908152600c602090815260408083208584528252808320848452909152902060038101546601000000000000900460ff161561225b5760405162461bcd60e51b815260206004820152601060248201526f105b1c9958591e481d5b9b1bd8dad95960821b6044820152606401610afd565b60038101805466ff000000000000191666010000000000001790554260048201556040518290849033907f4076dda36bc3a6260f6a8ac6bc969047147d2d95209f2b8cc66d8e64e995e768905f90a4505050565b335f90815260036020908152604080832085845282528083208484528252918290208251808401909352805480845260019091015492909101829052905b9250929050565b5f6020818152928152604080822090935290815220805460018201805491929161231d90613a4d565b80601f016020809104026020016040519081016040528092919081815260200182805461234990613a4d565b80156123945780601f1061236b57610100808354040283529160200191612394565b820191905f5260205f20905b81548152906001019060200180831161237757829003601f168201915b5050505050908060020180546123a990613a4d565b80601f01602080910402602001604051908101604052809291908181526020018280546123d590613a4d565b80156124205780601f106123f757610100808354040283529160200191612420565b820191905f5260205f20905b81548152906001019060200180831161240357829003601f168201915b505050506003830154600490930154919260ff8082169361010090920416915086565b6005602052825f5260405f20602052815f5260405f208181548110612466575f80fd5b905f5260205f2090600602015f925092505050805f01549080600101805461248d90613a4d565b80601f01602080910402602001604051908101604052809291908181526020018280546124b990613a4d565b80156125045780601f106124db57610100808354040283529160200191612504565b820191905f5260205f20905b8154815290600101906020018083116124e757829003601f168201915b50505050509080600201805461251990613a4d565b80601f016020809104026020016040519081016040528092919081815260200182805461254590613a4d565b80156125905780601f1061256757610100808354040283529160200191612590565b820191905f5260205f20905b81548152906001019060200180831161257357829003601f168201915b50505050600383015460048401546005909401549293909260ff909116915086565b335f90815260208181526040808320848452909152902060030154610100900460ff166126475760405162461bcd60e51b815260206004820152602660248201527f4861626974206d757374206265206172636869766564206265666f726520646560448201527f6c6574696f6e00000000000000000000000000000000000000000000000000006064820152608401610afd565b335f9081526020818152604080832084845290915281208181559061266f60018301826133ed565b61267c600283015f6133ed565b5060038101805461ffff191690555f6004909101819055604051829133917f79129ee884b5480c08d4fc697fa1ae7f36bb65f27fcc522f5513fa5fd83993e79190a350565b335f9081526020818152604080832085845290915290206003015460ff1661272b5760405162461bcd60e51b815260206004820152601d60248201527f4861626974206e6f7420666f756e64206f72206e6f74206163746976650000006044820152606401610afd565b335f90815260066020908152604080832085845290915290205481106127935760405162461bcd60e51b815260206004820152601560248201527f416368696576656d656e74206e6f7420666f756e6400000000000000000000006044820152606401610afd565b335f90815260056020908152604080832085845290915281208054839081106127be576127be613a39565b5f9182526020909120600690910201600481015490915060ff16156128255760405162461bcd60e51b815260206004820152601c60248201527f416368696576656d656e7420616c726561647920756e6c6f636b6564000000006044820152606401610afd565b60048101805460ff191660011790554260058201556040518290849033907f0d2905f03971dd710b34c1a52dde26e0e95c254f1b25942b22ce357c654f6dd7905f90a4505050565b335f81815260016020818152604080842054815160c08101835281815280840189815281840189905260608201869052608082018790524260a083015296865285845282862082875290935293208151815593519293909290918201906128d49082613afc565b50604082015160028201906128e99082613afc565b506060820151600382018054608085015115156101000261ff00199315159390931661ffff199091161791909117905560a090910151600490910155335f90815260016020526040812080549161293f83613a99565b91905055505f61294e5f612e60565b335f8181526002602090815260408083208784528083528184208690558484526007835281842088855283528184208690559383526008825280832087845282529091208390555290506129a181612dfd565b50335f8181526002602090815260408083208684529091529020546129c591612e0c565b5081336001600160a01b03167fd5bb7c3cf580056cd2cd3621e3f3672fbfb793ce28dd3975f03f409587d1b8af8686604051612a02929190613caa565b60405180910390a350505050565b335f908152600960209081526040808320858452825280832060ff808616855292529091205416612a835760405162461bcd60e51b815260206004820152601860248201527f416368696576656d656e74206e6f7420756e6c6f636b656400000000000000006044820152606401610afd565b335f908152600b60209081526040808320858452825280832060ff80861685529252909120541615612ae85760405162461bcd60e51b815260206004820152600e60248201526d105b1c9958591e481b5a5b9d195960921b6044820152606401610afd565b335f818152600b60209081526040808320868452825280832060ff86168085529252808320805460ff19166001179055519092859290917f43a23f27771a29f474fcecfc04864cdf5e9dc321c74370110f63971662158f269190a45050565b6060805f5f8460ff165f03612bcc575050604080518082018252600e81527f466972737420436865636b2d696e0000000000000000000000000000000000006020808301919091528251808401909352601a83527f5375626d697420796f75722066697273742070726f677265737300000000000090830152925090505f6001612df6565b8460ff16600103612c4e575050604080518082018252600c81527f372d6461792053747265616b00000000000000000000000000000000000000006020808301919091528251808401909352601483527f5265616368206120372d6461792073747265616b000000000000000000000000908301529250905060016007612df6565b8460ff16600203612cd0575050604080518082018252600d81527f33302d6461792053747265616b000000000000000000000000000000000000006020808301919091528251808401909352601583527f526561636820612033302d6461792073747265616b000000000000000000000090830152925090506001601e612df6565b8460ff16600303612d51575050604080518082018252600a81527f31303020506f696e7473000000000000000000000000000000000000000000006020808301919091528251808401909352601b83527f416363756d756c6174652031303020746f74616c20706f696e7473000000000090830152925090505f6064612df6565b8460ff16600403612dd3575050604080518082018252600a81527f35303020506f696e7473000000000000000000000000000000000000000000006020808301919091528251808401909352601b83527f416363756d756c6174652035303020746f74616c20706f696e7473000000000090830152925090505f6101f4612df6565b505060408051602080820183525f80835283519182019093528281529093509150805b9193509193565b5f612e088230612f1b565b5090565b5f612e178383612f1b565b5090919050565b5f612e2b83836004612fa4565b9392505050565b5f82612e4457612e415f612e60565b92505b81612e5557612e525f612e60565b91505b612e2b83835f6130c4565b5f6118418263ffffffff1660046131bf565b5f82612e8457612e815f612e60565b92505b81612e9557612e925f612e60565b91505b612e2b83835f613274565b5f83612eb257612eaf5f613329565b93505b82612ec357612ec05f612e60565b92505b81612ed457612ed15f612e60565b91505b612edf848484613344565b949350505050565b5f46600103612ef65750600190565b4662aa36a703612f07575061271190565b46617a6903612f1657505f1990565b505f90565b5f7f9e7b61f58c47dc699ac88507c4f5bb9f121c03808c5676a8078fe583e46497008054604051635ca4b5b160e11b8152600481018690526001600160a01b03858116602483015292935091169063b9496b62906044015f604051808303815f87803b158015612f89575f5ffd5b505af1158015612f9b573d5f5f3e3d5ffd5b50505050505050565b7f9e7b61f58c47dc699ac88507c4f5bb9f121c03808c5676a8078fe583e46497015460405163045fc19560e11b81525f917f9e7b61f58c47dc699ac88507c4f5bb9f121c03808c5676a8078fe583e4649700916001600160a01b03909116906308bf832a9061301d908890339089908990600401613cee565b6020604051808303815f875af1158015613039573d5f5f3e3d5ffd5b505050506040513d601f19601f8201168201806040525081019061305d9190613d24565b8154604051630f8e573b60e21b8152600481018390523360248201529193506001600160a01b031690633e395cec906044015f604051808303815f87803b1580156130a6575f5ffd5b505af11580156130b8573d5f5f3e3d5ffd5b50505050509392505050565b5f5f82156130d75750600160f81b6130da565b505f5b7f9e7b61f58c47dc699ac88507c4f5bb9f121c03808c5676a8078fe583e46497015460405163022f65e760e31b815260048101879052602481018690527fff00000000000000000000000000000000000000000000000000000000000000831660448201527f9e7b61f58c47dc699ac88507c4f5bb9f121c03808c5676a8078fe583e4649700916001600160a01b03169063117b2f38906064015b6020604051808303815f875af1158015613191573d5f5f3e3d5ffd5b505050506040513d601f19601f820116820180604052508101906131b59190613d24565b9695505050505050565b7f9e7b61f58c47dc699ac88507c4f5bb9f121c03808c5676a8078fe583e464970154604051639cd07acb60e01b81525f917f9e7b61f58c47dc699ac88507c4f5bb9f121c03808c5676a8078fe583e4649700916001600160a01b0390911690639cd07acb906132349087908790600401613d3b565b6020604051808303815f875af1158015613250573d5f5f3e3d5ffd5b505050506040513d601f19601f82011682018060405250810190612edf9190613d24565b5f5f82156132875750600160f81b61328a565b505f5b7f9e7b61f58c47dc699ac88507c4f5bb9f121c03808c5676a8078fe583e4649701546040516385362ee760e01b815260048101879052602481018690527fff00000000000000000000000000000000000000000000000000000000000000831660448201527f9e7b61f58c47dc699ac88507c4f5bb9f121c03808c5676a8078fe583e4649700916001600160a01b0316906385362ee790606401613175565b5f61184182613338575f61333b565b60015b60ff165f6131bf565b5f807f9e7b61f58c47dc699ac88507c4f5bb9f121c03808c5676a8078fe583e46497006001810154604051637702dcff60e01b81526004810188905260248101879052604481018690529192506001600160a01b031690637702dcff906064016020604051808303815f875af11580156133c0573d5f5f3e3d5ffd5b505050506040513d601f19601f820116820180604052508101906133e49190613d24565b95945050505050565b5080546133f990613a4d565b5f825580601f10613408575050565b601f0160209004905f5260205f20908101906134249190613427565b50565b5b80821115612e08575f8155600101613428565b5f6020828403121561344b575f5ffd5b5035919050565b5f5f60408385031215613463575f5ffd5b50508035926020909101359150565b5f81518084528060208401602086015e5f602082860101526020601f19601f83011685010191505092915050565b86815260c060208201525f6134b860c0830188613472565b82810360408401526134ca8188613472565b60608401969096525050911515608083015260a0909101529392505050565b5f5f5f606084860312156134fb575f5ffd5b505081359360208301359350604090920135919050565b5f5f83601f840112613522575f5ffd5b50813567ffffffffffffffff811115613539575f5ffd5b6020830191508360208285010111156122ed575f5ffd5b5f5f5f5f60608587031215613563575f5ffd5b8435935060208501359250604085013567ffffffffffffffff811115613587575f5ffd5b61359387828801613512565b95989497509550505050565b89815261012060208201525f6135b961012083018b613472565b82810360408401526135cb818b613472565b60ff998a1660608501529790981660808301525063ffffffff9490941660a085015291151560c084015260e0830152151561010090910152949350505050565b80356001600160a01b0381168114613621575f5ffd5b919050565b60ff81168114613424575f5ffd5b5f5f5f60608486031215613646575f5ffd5b61364f8461360b565b925060208401359150604084013561366681613626565b809150509250925092565b5f5f5f60608486031215613683575f5ffd5b61368c8461360b565b95602085013595506040909401359392505050565b86815260c060208201525f6136b960c0830188613472565b82810360408401526136cb8188613472565b95151560608401525050911515608083015260a0909101529392505050565b5f602082840312156136fa575f5ffd5b612e2b8261360b565b634e487b7160e01b5f52604160045260245ffd5b604051601f8201601f1916810167ffffffffffffffff8111828210171561374057613740613703565b604052919050565b5f67ffffffffffffffff82111561376157613761613703565b50601f01601f191660200190565b5f82601f83011261377e575f5ffd5b813561379161378c82613748565b613717565b8181528460208386010111156137a5575f5ffd5b816020850160208301375f918101602001919091529392505050565b5f5f5f5f5f5f60a087890312156137d6575f5ffd5b86359550602087013567ffffffffffffffff8111156137f3575f5ffd5b6137ff89828a0161376f565b955050604087013567ffffffffffffffff81111561381b575f5ffd5b61382789828a0161376f565b94505060608701359250608087013567ffffffffffffffff81111561384a575f5ffd5b61385689828a01613512565b979a9699509497509295939492505050565b5f5f60408385031215613879575f5ffd5b6138828361360b565b946020939093013593505050565b5f5f604083850312156138a1575f5ffd5b8235915060208301356138b381613626565b809150509250929050565b63ffffffff81168114613424575f5ffd5b5f5f5f5f5f5f60c087890312156138e4575f5ffd5b86359550602087013567ffffffffffffffff811115613901575f5ffd5b61390d89828a0161376f565b955050604087013567ffffffffffffffff811115613929575f5ffd5b61393589828a0161376f565b945050606087013561394681613626565b9250608087013561395681613626565b915060a0870135613966816138be565b809150509295509295509295565b5f5f60408385031215613985575f5ffd5b823567ffffffffffffffff81111561399b575f5ffd5b6139a78582860161376f565b925050602083013567ffffffffffffffff8111156139c3575f5ffd5b6139cf8582860161376f565b9150509250929050565b5f602082840312156139e9575f5ffd5b8135612e2b81613626565b608081525f613a066080830187613472565b8281036020840152613a188187613472565b91505060ff8416604083015263ffffffff8316606083015295945050505050565b634e487b7160e01b5f52603260045260245ffd5b600181811c90821680613a6157607f821691505b602082108103613a7f57634e487b7160e01b5f52602260045260245ffd5b50919050565b634e487b7160e01b5f52601160045260245ffd5b5f60018201613aaa57613aaa613a85565b5060010190565b601f821115610fea57805f5260205f20601f840160051c81016020851015613ad65750805b601f840160051c820191505b81811015613af5575f8155600101613ae2565b5050505050565b815167ffffffffffffffff811115613b1657613b16613703565b613b2a81613b248454613a4d565b84613ab1565b6020601f821160018114613b5c575f8315613b455750848201515b5f19600385901b1c1916600184901b178455613af5565b5f84815260208120601f198516915b82811015613b8b5787850151825560209485019460019092019101613b6b565b5084821015613ba857868401515f19600387901b60f8161c191681555b50505050600190811b01905550565b5f82601f830112613bc6575f5ffd5b8151613bd461378c82613748565b818152846020838601011115613be8575f5ffd5b8160208501602083015e5f918101602001919091529392505050565b5f5f5f5f60808587031215613c17575f5ffd5b845167ffffffffffffffff811115613c2d575f5ffd5b613c3987828801613bb7565b945050602085015167ffffffffffffffff811115613c55575f5ffd5b613c6187828801613bb7565b9350506040850151613c7281613626565b6060860151909250613c83816138be565b939692955090935050565b63ffffffff828116828216039081111561184157611841613a85565b604081525f613cbc6040830185613472565b82810360208401526133e48185613472565b60548110613cea57634e487b7160e01b5f52602160045260245ffd5b9052565b8481526001600160a01b0384166020820152608060408201525f613d156080830185613472565b90506133e46060830184613cce565b5f60208284031215613d34575f5ffd5b5051919050565b82815260408101612e2b6020830184613cce56fea164736f6c634300081b000a",
  "devdoc": {
    "kind": "dev",
    "methods": {
      "archiveHabit(uint256)": {
        "params": {
          "habitId": "The ID of the habit to archive"
        }
      },
      "checkAchievementEncrypted(uint256,uint256)": {
        "details": "Returns encrypted 1 if should unlock, else encrypted 0"
      },
      "createAchievement(uint256,string,string,bytes32,bytes)": {
        "params": {
          "description": "The description of the achievement",
          "habitId": "The ID of the habit",
          "name": "The name of the achievement",
          "thresholdEuint32": "The encrypted threshold value",
          "thresholdProof": "The threshold proof"
        }
      },
      "createHabit(string,string)": {
        "params": {
          "category": "The category of the habit",
          "name": "The name of the habit"
        }
      },
      "deleteHabit(uint256)": {
        "params": {
          "habitId": "The ID of the habit to delete"
        }
      },
      "getAchievement(uint256,uint256)": {
        "params": {
          "habitId": "The ID of the habit",
          "index": "The index of the achievement"
        },
        "returns": {
          "description": "The achievement description",
          "id": "The achievement ID",
          "isUnlocked": "Whether the achievement is unlocked",
          "name": "The achievement name",
          "threshold": "The encrypted threshold",
          "unlockedAt": "When the achievement was unlocked"
        }
      },
      "getAchievementCount(uint256)": {
        "params": {
          "habitId": "The ID of the habit"
        },
        "returns": {
          "_0": "The number of achievements"
        }
      },
      "getDailyRecord(uint256,uint256)": {
        "params": {
          "habitId": "The ID of the habit",
          "recordIndex": "The index of the record"
        },
        "returns": {
          "progress": "The encrypted progress value",
          "timestamp": "The timestamp of the record"
        }
      },
      "getFixedAchievementMeta(uint8)": {
        "details": "metric: 0=TotalProgress, 1=StreakDays, 2=Growth"
      },
      "getHabit(uint256)": {
        "params": {
          "habitId": "The ID of the habit"
        },
        "returns": {
          "category": "The habit category",
          "createdAt": "When the habit was created",
          "id": "The habit ID",
          "isActive": "Whether the habit is active",
          "isArchived": "Whether the habit is archived",
          "name": "The habit name"
        }
      },
      "getHabitGrowth(uint256)": {
        "params": {
          "habitId": "The ID of the habit"
        },
        "returns": {
          "_0": "The encrypted growth value"
        }
      },
      "getRecordCount(uint256)": {
        "params": {
          "habitId": "The ID of the habit"
        },
        "returns": {
          "_0": "The number of records"
        }
      },
      "getStreakDays(uint256)": {
        "params": {
          "habitId": "The ID of the habit"
        },
        "returns": {
          "_0": "The encrypted streak days"
        }
      },
      "getTotalProgress(uint256)": {
        "params": {
          "habitId": "The ID of the habit"
        },
        "returns": {
          "_0": "The encrypted total progress"
        }
      },
      "submitProgress(uint256,bytes32,bytes)": {
        "params": {
          "habitId": "The ID of the habit",
          "inputEuint32": "The encrypted progress value",
          "inputProof": "The input proof"
        }
      },
      "unlockAchievement(uint256,uint256)": {
        "params": {
          "achievementId": "The ID of the achievement to unlock",
          "habitId": "The ID of the habit"
        }
      }
    },
    "title": "HabitTree - Encrypted Habit Tracking DApp",
    "version": 1
  },
  "userdoc": {
    "errors": {
      "ZamaProtocolUnsupported()": [
        {
          "notice": "Returned if the Zama protocol is not supported on the current chain"
        }
      ]
    },
    "kind": "user",
    "methods": {
      "archiveHabit(uint256)": {
        "notice": "Archive a habit"
      },
      "authorizeAllDailyRecords(uint256)": {
        "notice": "Convenience function to authorize all records for a habit"
      },
      "authorizeDailyRecords(uint256,uint256,uint256)": {
        "notice": "Authorize user decryption for a range of daily records (use small ranges if gas is a concern)"
      },
      "checkAchievementEncrypted(uint256,uint256)": {
        "notice": "Encrypted check if achievement is unlocked (growth >= threshold)"
      },
      "checkFixedAchievementEncrypted(uint256,uint8)": {
        "notice": "Encrypted check for fixed achievement (returns 1 if eligible else 0)"
      },
      "createAchievement(uint256,string,string,bytes32,bytes)": {
        "notice": "Create an achievement for a habit"
      },
      "createHabit(string,string)": {
        "notice": "Create a new habit"
      },
      "deleteHabit(uint256)": {
        "notice": "Delete a habit (only if archived)"
      },
      "getAchievement(uint256,uint256)": {
        "notice": "Get achievement by index"
      },
      "getAchievementCount(uint256)": {
        "notice": "Get achievement count for a habit"
      },
      "getDailyRecord(uint256,uint256)": {
        "notice": "Get daily record (encrypted)"
      },
      "getFixedAchievementCount()": {
        "notice": "Number of fixed achievements"
      },
      "getFixedAchievementMeta(uint8)": {
        "notice": "Get fixed achievement metadata"
      },
      "getFixedAchievementStatus(uint256,uint8)": {
        "notice": "Get fixed achievement status for user/habit"
      },
      "getHabit(uint256)": {
        "notice": "Get habit information"
      },
      "getHabitGrowth(uint256)": {
        "notice": "Get habit growth value (encrypted)"
      },
      "getRecordCount(uint256)": {
        "notice": "Get record count for a habit"
      },
      "getStreakDays(uint256)": {
        "notice": "Get streak days (encrypted)"
      },
      "getTotalProgress(uint256)": {
        "notice": "Get total progress (encrypted)"
      },
      "mintFixedAchievementBadge(uint256,uint8)": {
        "notice": "'Mint' a badge (record minted status) after unlocking"
      },
      "submitProgress(uint256,bytes32,bytes)": {
        "notice": "Submit daily progress (encrypted)"
      },
      "unlockAchievement(uint256,uint256)": {
        "notice": "Check and unlock achievements (called by frontend after decryption)"
      },
      "unlockFixedAchievement(uint256,uint8)": {
        "notice": "Mark fixed achievement as unlocked (should be called after client-side decryption check)"
      }
    },
    "notice": "A privacy-preserving habit tracking system using FHEVM",
    "version": 1
  },
  "storageLayout": {
    "storage": [
      {
        "astId": 39223,
        "contract": "contracts/HabitTree.sol:HabitTree",
        "label": "habits",
        "offset": 0,
        "slot": "0",
        "type": "t_mapping(t_address,t_mapping(t_uint256,t_struct(Habit)39196_storage))"
      },
      {
        "astId": 39227,
        "contract": "contracts/HabitTree.sol:HabitTree",
        "label": "habitCount",
        "offset": 0,
        "slot": "1",
        "type": "t_mapping(t_address,t_uint256)"
      },
      {
        "astId": 39234,
        "contract": "contracts/HabitTree.sol:HabitTree",
        "label": "habitGrowth",
        "offset": 0,
        "slot": "2",
        "type": "t_mapping(t_address,t_mapping(t_uint256,t_userDefinedValueType(euint32)41186))"
      },
      {
        "astId": 39243,
        "contract": "contracts/HabitTree.sol:HabitTree",
        "label": "dailyRecords",
        "offset": 0,
        "slot": "3",
        "type": "t_mapping(t_address,t_mapping(t_uint256,t_mapping(t_uint256,t_struct(DailyRecord)39202_storage)))"
      },
      {
        "astId": 39249,
        "contract": "contracts/HabitTree.sol:HabitTree",
        "label": "recordCount",
        "offset": 0,
        "slot": "4",
        "type": "t_mapping(t_address,t_mapping(t_uint256,t_uint256))"
      },
      {
        "astId": 39257,
        "contract": "contracts/HabitTree.sol:HabitTree",
        "label": "achievements",
        "offset": 0,
        "slot": "5",
        "type": "t_mapping(t_address,t_mapping(t_uint256,t_array(t_struct(Achievement)39216_storage)dyn_storage))"
      },
      {
        "astId": 39263,
        "contract": "contracts/HabitTree.sol:HabitTree",
        "label": "achievementCount",
        "offset": 0,
        "slot": "6",
        "type": "t_mapping(t_address,t_mapping(t_uint256,t_uint256))"
      },
      {
        "astId": 39270,
        "contract": "contracts/HabitTree.sol:HabitTree",
        "label": "totalProgress",
        "offset": 0,
        "slot": "7",
        "type": "t_mapping(t_address,t_mapping(t_uint256,t_userDefinedValueType(euint32)41186))"
      },
      {
        "astId": 39277,
        "contract": "contracts/HabitTree.sol:HabitTree",
        "label": "streakDays",
        "offset": 0,
        "slot": "8",
        "type": "t_mapping(t_address,t_mapping(t_uint256,t_userDefinedValueType(euint32)41186))"
      },
      {
        "astId": 39367,
        "contract": "contracts/HabitTree.sol:HabitTree",
        "label": "fixedAchievementUnlocked",
        "offset": 0,
        "slot": "9",
        "type": "t_mapping(t_address,t_mapping(t_uint256,t_mapping(t_uint8,t_bool)))"
      },
      {
        "astId": 39375,
        "contract": "contracts/HabitTree.sol:HabitTree",
        "label": "fixedAchievementUnlockedAt",
        "offset": 0,
        "slot": "10",
        "type": "t_mapping(t_address,t_mapping(t_uint256,t_mapping(t_uint8,t_uint256)))"
      },
      {
        "astId": 39383,
        "contract": "contracts/HabitTree.sol:HabitTree",
        "label": "fixedAchievementMinted",
        "offset": 0,
        "slot": "11",
        "type": "t_mapping(t_address,t_mapping(t_uint256,t_mapping(t_uint8,t_bool)))"
      },
      {
        "astId": 39411,
        "contract": "contracts/HabitTree.sol:HabitTree",
        "label": "customBadges",
        "offset": 0,
        "slot": "12",
        "type": "t_mapping(t_address,t_mapping(t_uint256,t_mapping(t_uint256,t_struct(CustomBadge)39402_storage)))"
      },
      {
        "astId": 39417,
        "contract": "contracts/HabitTree.sol:HabitTree",
        "label": "customBadgeCount",
        "offset": 0,
        "slot": "13",
        "type": "t_mapping(t_address,t_mapping(t_uint256,t_uint256))"
      }
    ],
    "types": {
      "t_address": {
        "encoding": "inplace",
        "label": "address",
        "numberOfBytes": "20"
      },
      "t_array(t_struct(Achievement)39216_storage)dyn_storage": {
        "base": "t_struct(Achievement)39216_storage",
        "encoding": "dynamic_array",
        "label": "struct HabitTree.Achievement[]",
        "numberOfBytes": "32"
      },
      "t_bool": {
        "encoding": "inplace",
        "label": "bool",
        "numberOfBytes": "1"
      },
      "t_mapping(t_address,t_mapping(t_uint256,t_array(t_struct(Achievement)39216_storage)dyn_storage))": {
        "encoding": "mapping",
        "key": "t_address",
        "label": "mapping(address => mapping(uint256 => struct HabitTree.Achievement[]))",
        "numberOfBytes": "32",
        "value": "t_mapping(t_uint256,t_array(t_struct(Achievement)39216_storage)dyn_storage)"
      },
      "t_mapping(t_address,t_mapping(t_uint256,t_mapping(t_uint256,t_struct(CustomBadge)39402_storage)))": {
        "encoding": "mapping",
        "key": "t_address",
        "label": "mapping(address => mapping(uint256 => mapping(uint256 => struct HabitTree.CustomBadge)))",
        "numberOfBytes": "32",
        "value": "t_mapping(t_uint256,t_mapping(t_uint256,t_struct(CustomBadge)39402_storage))"
      },
      "t_mapping(t_address,t_mapping(t_uint256,t_mapping(t_uint256,t_struct(DailyRecord)39202_storage)))": {
        "encoding": "mapping",
        "key": "t_address",
        "label": "mapping(address => mapping(uint256 => mapping(uint256 => struct HabitTree.DailyRecord)))",
        "numberOfBytes": "32",
        "value": "t_mapping(t_uint256,t_mapping(t_uint256,t_struct(DailyRecord)39202_storage))"
      },
      "t_mapping(t_address,t_mapping(t_uint256,t_mapping(t_uint8,t_bool)))": {
        "encoding": "mapping",
        "key": "t_address",
        "label": "mapping(address => mapping(uint256 => mapping(uint8 => bool)))",
        "numberOfBytes": "32",
        "value": "t_mapping(t_uint256,t_mapping(t_uint8,t_bool))"
      },
      "t_mapping(t_address,t_mapping(t_uint256,t_mapping(t_uint8,t_uint256)))": {
        "encoding": "mapping",
        "key": "t_address",
        "label": "mapping(address => mapping(uint256 => mapping(uint8 => uint256)))",
        "numberOfBytes": "32",
        "value": "t_mapping(t_uint256,t_mapping(t_uint8,t_uint256))"
      },
      "t_mapping(t_address,t_mapping(t_uint256,t_struct(Habit)39196_storage))": {
        "encoding": "mapping",
        "key": "t_address",
        "label": "mapping(address => mapping(uint256 => struct HabitTree.Habit))",
        "numberOfBytes": "32",
        "value": "t_mapping(t_uint256,t_struct(Habit)39196_storage)"
      },
      "t_mapping(t_address,t_mapping(t_uint256,t_uint256))": {
        "encoding": "mapping",
        "key": "t_address",
        "label": "mapping(address => mapping(uint256 => uint256))",
        "numberOfBytes": "32",
        "value": "t_mapping(t_uint256,t_uint256)"
      },
      "t_mapping(t_address,t_mapping(t_uint256,t_userDefinedValueType(euint32)41186))": {
        "encoding": "mapping",
        "key": "t_address",
        "label": "mapping(address => mapping(uint256 => euint32))",
        "numberOfBytes": "32",
        "value": "t_mapping(t_uint256,t_userDefinedValueType(euint32)41186)"
      },
      "t_mapping(t_address,t_uint256)": {
        "encoding": "mapping",
        "key": "t_address",
        "label": "mapping(address => uint256)",
        "numberOfBytes": "32",
        "value": "t_uint256"
      },
      "t_mapping(t_uint256,t_array(t_struct(Achievement)39216_storage)dyn_storage)": {
        "encoding": "mapping",
        "key": "t_uint256",
        "label": "mapping(uint256 => struct HabitTree.Achievement[])",
        "numberOfBytes": "32",
        "value": "t_array(t_struct(Achievement)39216_storage)dyn_storage"
      },
      "t_mapping(t_uint256,t_mapping(t_uint256,t_struct(CustomBadge)39402_storage))": {
        "encoding": "mapping",
        "key": "t_uint256",
        "label": "mapping(uint256 => mapping(uint256 => struct HabitTree.CustomBadge))",
        "numberOfBytes": "32",
        "value": "t_mapping(t_uint256,t_struct(CustomBadge)39402_storage)"
      },
      "t_mapping(t_uint256,t_mapping(t_uint256,t_struct(DailyRecord)39202_storage))": {
        "encoding": "mapping",
        "key": "t_uint256",
        "label": "mapping(uint256 => mapping(uint256 => struct HabitTree.DailyRecord))",
        "numberOfBytes": "32",
        "value": "t_mapping(t_uint256,t_struct(DailyRecord)39202_storage)"
      },
      "t_mapping(t_uint256,t_mapping(t_uint8,t_bool))": {
        "encoding": "mapping",
        "key": "t_uint256",
        "label": "mapping(uint256 => mapping(uint8 => bool))",
        "numberOfBytes": "32",
        "value": "t_mapping(t_uint8,t_bool)"
      },
      "t_mapping(t_uint256,t_mapping(t_uint8,t_uint256))": {
        "encoding": "mapping",
        "key": "t_uint256",
        "label": "mapping(uint256 => mapping(uint8 => uint256))",
        "numberOfBytes": "32",
        "value": "t_mapping(t_uint8,t_uint256)"
      },
      "t_mapping(t_uint256,t_struct(CustomBadge)39402_storage)": {
        "encoding": "mapping",
        "key": "t_uint256",
        "label": "mapping(uint256 => struct HabitTree.CustomBadge)",
        "numberOfBytes": "32",
        "value": "t_struct(CustomBadge)39402_storage"
      },
      "t_mapping(t_uint256,t_struct(DailyRecord)39202_storage)": {
        "encoding": "mapping",
        "key": "t_uint256",
        "label": "mapping(uint256 => struct HabitTree.DailyRecord)",
        "numberOfBytes": "32",
        "value": "t_struct(DailyRecord)39202_storage"
      },
      "t_mapping(t_uint256,t_struct(Habit)39196_storage)": {
        "encoding": "mapping",
        "key": "t_uint256",
        "label": "mapping(uint256 => struct HabitTree.Habit)",
        "numberOfBytes": "32",
        "value": "t_struct(Habit)39196_storage"
      },
      "t_mapping(t_uint256,t_uint256)": {
        "encoding": "mapping",
        "key": "t_uint256",
        "label": "mapping(uint256 => uint256)",
        "numberOfBytes": "32",
        "value": "t_uint256"
      },
      "t_mapping(t_uint256,t_userDefinedValueType(euint32)41186)": {
        "encoding": "mapping",
        "key": "t_uint256",
        "label": "mapping(uint256 => euint32)",
        "numberOfBytes": "32",
        "value": "t_userDefinedValueType(euint32)41186"
      },
      "t_mapping(t_uint8,t_bool)": {
        "encoding": "mapping",
        "key": "t_uint8",
        "label": "mapping(uint8 => bool)",
        "numberOfBytes": "32",
        "value": "t_bool"
      },
      "t_mapping(t_uint8,t_uint256)": {
        "encoding": "mapping",
        "key": "t_uint8",
        "label": "mapping(uint8 => uint256)",
        "numberOfBytes": "32",
        "value": "t_uint256"
      },
      "t_string_storage": {
        "encoding": "bytes",
        "label": "string",
        "numberOfBytes": "32"
      },
      "t_struct(Achievement)39216_storage": {
        "encoding": "inplace",
        "label": "struct HabitTree.Achievement",
        "members": [
          {
            "astId": 39204,
            "contract": "contracts/HabitTree.sol:HabitTree",
            "label": "id",
            "offset": 0,
            "slot": "0",
            "type": "t_uint256"
          },
          {
            "astId": 39206,
            "contract": "contracts/HabitTree.sol:HabitTree",
            "label": "name",
            "offset": 0,
            "slot": "1",
            "type": "t_string_storage"
          },
          {
            "astId": 39208,
            "contract": "contracts/HabitTree.sol:HabitTree",
            "label": "description",
            "offset": 0,
            "slot": "2",
            "type": "t_string_storage"
          },
          {
            "astId": 39211,
            "contract": "contracts/HabitTree.sol:HabitTree",
            "label": "threshold",
            "offset": 0,
            "slot": "3",
            "type": "t_userDefinedValueType(euint32)41186"
          },
          {
            "astId": 39213,
            "contract": "contracts/HabitTree.sol:HabitTree",
            "label": "isUnlocked",
            "offset": 0,
            "slot": "4",
            "type": "t_bool"
          },
          {
            "astId": 39215,
            "contract": "contracts/HabitTree.sol:HabitTree",
            "label": "unlockedAt",
            "offset": 0,
            "slot": "5",
            "type": "t_uint256"
          }
        ],
        "numberOfBytes": "192"
      },
      "t_struct(CustomBadge)39402_storage": {
        "encoding": "inplace",
        "label": "struct HabitTree.CustomBadge",
        "members": [
          {
            "astId": 39385,
            "contract": "contracts/HabitTree.sol:HabitTree",
            "label": "id",
            "offset": 0,
            "slot": "0",
            "type": "t_uint256"
          },
          {
            "astId": 39387,
            "contract": "contracts/HabitTree.sol:HabitTree",
            "label": "name",
            "offset": 0,
            "slot": "1",
            "type": "t_string_storage"
          },
          {
            "astId": 39389,
            "contract": "contracts/HabitTree.sol:HabitTree",
            "label": "description",
            "offset": 0,
            "slot": "2",
            "type": "t_string_storage"
          },
          {
            "astId": 39391,
            "contract": "contracts/HabitTree.sol:HabitTree",
            "label": "metric",
            "offset": 0,
            "slot": "3",
            "type": "t_uint8"
          },
          {
            "astId": 39393,
            "contract": "contracts/HabitTree.sol:HabitTree",
            "label": "operatorCode",
            "offset": 1,
            "slot": "3",
            "type": "t_uint8"
          },
          {
            "astId": 39395,
            "contract": "contracts/HabitTree.sol:HabitTree",
            "label": "threshold",
            "offset": 2,
            "slot": "3",
            "type": "t_uint32"
          },
          {
            "astId": 39397,
            "contract": "contracts/HabitTree.sol:HabitTree",
            "label": "isUnlocked",
            "offset": 6,
            "slot": "3",
            "type": "t_bool"
          },
          {
            "astId": 39399,
            "contract": "contracts/HabitTree.sol:HabitTree",
            "label": "unlockedAt",
            "offset": 0,
            "slot": "4",
            "type": "t_uint256"
          },
          {
            "astId": 39401,
            "contract": "contracts/HabitTree.sol:HabitTree",
            "label": "isMinted",
            "offset": 0,
            "slot": "5",
            "type": "t_bool"
          }
        ],
        "numberOfBytes": "192"
      },
      "t_struct(DailyRecord)39202_storage": {
        "encoding": "inplace",
        "label": "struct HabitTree.DailyRecord",
        "members": [
          {
            "astId": 39198,
            "contract": "contracts/HabitTree.sol:HabitTree",
            "label": "timestamp",
            "offset": 0,
            "slot": "0",
            "type": "t_uint256"
          },
          {
            "astId": 39201,
            "contract": "contracts/HabitTree.sol:HabitTree",
            "label": "progress",
            "offset": 0,
            "slot": "1",
            "type": "t_userDefinedValueType(euint32)41186"
          }
        ],
        "numberOfBytes": "64"
      },
      "t_struct(Habit)39196_storage": {
        "encoding": "inplace",
        "label": "struct HabitTree.Habit",
        "members": [
          {
            "astId": 39185,
            "contract": "contracts/HabitTree.sol:HabitTree",
            "label": "id",
            "offset": 0,
            "slot": "0",
            "type": "t_uint256"
          },
          {
            "astId": 39187,
            "contract": "contracts/HabitTree.sol:HabitTree",
            "label": "name",
            "offset": 0,
            "slot": "1",
            "type": "t_string_storage"
          },
          {
            "astId": 39189,
            "contract": "contracts/HabitTree.sol:HabitTree",
            "label": "category",
            "offset": 0,
            "slot": "2",
            "type": "t_string_storage"
          },
          {
            "astId": 39191,
            "contract": "contracts/HabitTree.sol:HabitTree",
            "label": "isActive",
            "offset": 0,
            "slot": "3",
            "type": "t_bool"
          },
          {
            "astId": 39193,
            "contract": "contracts/HabitTree.sol:HabitTree",
            "label": "isArchived",
            "offset": 1,
            "slot": "3",
            "type": "t_bool"
          },
          {
            "astId": 39195,
            "contract": "contracts/HabitTree.sol:HabitTree",
            "label": "createdAt",
            "offset": 0,
            "slot": "4",
            "type": "t_uint256"
          }
        ],
        "numberOfBytes": "160"
      },
      "t_uint256": {
        "encoding": "inplace",
        "label": "uint256",
        "numberOfBytes": "32"
      },
      "t_uint32": {
        "encoding": "inplace",
        "label": "uint32",
        "numberOfBytes": "4"
      },
      "t_uint8": {
        "encoding": "inplace",
        "label": "uint8",
        "numberOfBytes": "1"
      },
      "t_userDefinedValueType(euint32)41186": {
        "encoding": "inplace",
        "label": "euint32",
        "numberOfBytes": "32"
      }
    }
  }
}